{
  "_format": "hh-sol-artifact-1",
  "contractName": "FormApp",
  "sourceName": "contracts/FormApp.sol",
  "abi": [
    {
      "inputs": [
        {
          "internalType": "string",
          "name": "_name",
          "type": "string"
        },
        {
          "internalType": "uint8",
          "name": "_age",
          "type": "uint8"
        },
        {
          "internalType": "string",
          "name": "_answer",
          "type": "string"
        }
      ],
      "name": "add_data",
      "outputs": [],
      "stateMutability": "nonpayable",
      "type": "function"
    },
    {
      "inputs": [
        {
          "internalType": "uint256",
          "name": "",
          "type": "uint256"
        }
      ],
      "name": "datas",
      "outputs": [
        {
          "internalType": "string",
          "name": "name",
          "type": "string"
        },
        {
          "internalType": "uint8",
          "name": "age",
          "type": "uint8"
        },
        {
          "internalType": "string",
          "name": "answer",
          "type": "string"
        }
      ],
      "stateMutability": "view",
      "type": "function"
    },
    {
      "inputs": [
        {
          "internalType": "uint256",
          "name": "_index",
          "type": "uint256"
        }
      ],
      "name": "get_data",
      "outputs": [
        {
          "components": [
            {
              "internalType": "string",
              "name": "name",
              "type": "string"
            },
            {
              "internalType": "uint8",
              "name": "age",
              "type": "uint8"
            },
            {
              "internalType": "string",
              "name": "answer",
              "type": "string"
            }
          ],
          "internalType": "struct FormApp.Data",
          "name": "",
          "type": "tuple"
        }
      ],
      "stateMutability": "view",
      "type": "function"
    },
    {
      "inputs": [],
      "name": "get_size",
      "outputs": [
        {
          "internalType": "uint256",
          "name": "",
          "type": "uint256"
        }
      ],
      "stateMutability": "view",
      "type": "function"
    }
  ],
  "bytecode": "0x608060405234801561001057600080fd5b50610a6f806100206000396000f3fe608060405234801561001057600080fd5b506004361061004c5760003560e01c80630c39209914610051578063b0670cc914610081578063ba864d531461009f578063c0a094fd146100bb575b600080fd5b61006b6004803603810190610066919061059a565b6100ed565b60405161007891906106d3565b60405180910390f35b61008961027b565b6040516100969190610704565b60405180910390f35b6100b960048036038101906100b49190610880565b610287565b005b6100d560048036038101906100d0919061059a565b610332565b6040516100e493929190610964565b60405180910390f35b6100f5610489565b816000805490501161010657600080fd5b6000828154811061011a576101196109a9565b5b906000526020600020906003020160405180606001604052908160008201805461014390610a07565b80601f016020809104026020016040519081016040528092919081815260200182805461016f90610a07565b80156101bc5780601f10610191576101008083540402835291602001916101bc565b820191906000526020600020905b81548152906001019060200180831161019f57829003601f168201915b505050505081526020016001820160009054906101000a900460ff1660ff1660ff1681526020016002820180546101f290610a07565b80601f016020809104026020016040519081016040528092919081815260200182805461021e90610a07565b801561026b5780601f106102405761010080835404028352916020019161026b565b820191906000526020600020905b81548152906001019060200180831161024e57829003601f168201915b5050505050815250509050919050565b60008080549050905090565b600060405180606001604052808581526020018460ff16815260200183815250908060018154018082558091505060019003906000526020600020906003020160009091909190915060008201518160000190805190602001906102ec9291906104ad565b5060208201518160010160006101000a81548160ff021916908360ff160217905550604082015181600201908051906020019061032a9291906104ad565b505050505050565b6000818154811061034257600080fd5b906000526020600020906003020160009150905080600001805461036590610a07565b80601f016020809104026020016040519081016040528092919081815260200182805461039190610a07565b80156103de5780601f106103b3576101008083540402835291602001916103de565b820191906000526020600020905b8154815290600101906020018083116103c157829003601f168201915b5050505050908060010160009054906101000a900460ff169080600201805461040690610a07565b80601f016020809104026020016040519081016040528092919081815260200182805461043290610a07565b801561047f5780601f106104545761010080835404028352916020019161047f565b820191906000526020600020905b81548152906001019060200180831161046257829003601f168201915b5050505050905083565b604051806060016040528060608152602001600060ff168152602001606081525090565b8280546104b990610a07565b90600052602060002090601f0160209004810192826104db5760008555610522565b82601f106104f457805160ff1916838001178555610522565b82800160010185558215610522579182015b82811115610521578251825591602001919060010190610506565b5b50905061052f9190610533565b5090565b5b8082111561054c576000816000905550600101610534565b5090565b6000604051905090565b600080fd5b600080fd5b6000819050919050565b61057781610564565b811461058257600080fd5b50565b6000813590506105948161056e565b92915050565b6000602082840312156105b0576105af61055a565b5b60006105be84828501610585565b91505092915050565b600081519050919050565b600082825260208201905092915050565b60005b838110156106015780820151818401526020810190506105e6565b83811115610610576000848401525b50505050565b6000601f19601f8301169050919050565b6000610632826105c7565b61063c81856105d2565b935061064c8185602086016105e3565b61065581610616565b840191505092915050565b600060ff82169050919050565b61067681610660565b82525050565b600060608301600083015184820360008601526106998282610627565b91505060208301516106ae602086018261066d565b50604083015184820360408601526106c68282610627565b9150508091505092915050565b600060208201905081810360008301526106ed818461067c565b905092915050565b6106fe81610564565b82525050565b600060208201905061071960008301846106f5565b92915050565b600080fd5b600080fd5b7f4e487b7100000000000000000000000000000000000000000000000000000000600052604160045260246000fd5b61076182610616565b810181811067ffffffffffffffff821117156107805761077f610729565b5b80604052505050565b6000610793610550565b905061079f8282610758565b919050565b600067ffffffffffffffff8211156107bf576107be610729565b5b6107c882610616565b9050602081019050919050565b82818337600083830152505050565b60006107f76107f2846107a4565b610789565b90508281526020810184848401111561081357610812610724565b5b61081e8482856107d5565b509392505050565b600082601f83011261083b5761083a61071f565b5b813561084b8482602086016107e4565b91505092915050565b61085d81610660565b811461086857600080fd5b50565b60008135905061087a81610854565b92915050565b6000806000606084860312156108995761089861055a565b5b600084013567ffffffffffffffff8111156108b7576108b661055f565b5b6108c386828701610826565b93505060206108d48682870161086b565b925050604084013567ffffffffffffffff8111156108f5576108f461055f565b5b61090186828701610826565b9150509250925092565b600082825260208201905092915050565b6000610927826105c7565b610931818561090b565b93506109418185602086016105e3565b61094a81610616565b840191505092915050565b61095e81610660565b82525050565b6000606082019050818103600083015261097e818661091c565b905061098d6020830185610955565b818103604083015261099f818461091c565b9050949350505050565b7f4e487b7100000000000000000000000000000000000000000000000000000000600052603260045260246000fd5b7f4e487b7100000000000000000000000000000000000000000000000000000000600052602260045260246000fd5b60006002820490506001821680610a1f57607f821691505b60208210811415610a3357610a326109d8565b5b5091905056fea2646970667358221220f7c5b1e754745823ebc14fb273a5132c4f1c71ad3b5448bc36f829dbf760fd5e64736f6c63430008090033",
  "linkReferences": {},
  "deployedLinkReferences": {}
}