{
  "_format": "hh-sol-artifact-1",
  "contractName": "FormApp",
  "sourceName": "contracts/FormApp.sol",
  "abi": [
    {
      "inputs": [
        {
          "internalType": "string",
          "name": "_name",
          "type": "string"
        },
        {
          "internalType": "uint8",
          "name": "_age",
          "type": "uint8"
        },
        {
          "internalType": "string",
          "name": "_answer",
          "type": "string"
        }
      ],
      "name": "add_data",
      "outputs": [],
      "stateMutability": "nonpayable",
      "type": "function"
    },
    {
      "inputs": [
        {
          "internalType": "uint256",
          "name": "",
          "type": "uint256"
        }
      ],
      "name": "datas",
      "outputs": [
        {
          "internalType": "string",
          "name": "name",
          "type": "string"
        },
        {
          "internalType": "uint8",
          "name": "age",
          "type": "uint8"
        },
        {
          "internalType": "string",
          "name": "answer",
          "type": "string"
        }
      ],
      "stateMutability": "view",
      "type": "function"
    },
    {
      "inputs": [
        {
          "internalType": "uint256",
          "name": "_index",
          "type": "uint256"
        }
      ],
      "name": "get_data",
      "outputs": [
        {
          "components": [
            {
              "internalType": "string",
              "name": "name",
              "type": "string"
            },
            {
              "internalType": "uint8",
              "name": "age",
              "type": "uint8"
            },
            {
              "internalType": "string",
              "name": "answer",
              "type": "string"
            }
          ],
          "internalType": "struct FormApp.Data",
          "name": "",
          "type": "tuple"
        }
      ],
      "stateMutability": "view",
      "type": "function"
    }
  ],
  "bytecode": "0x608060405234801561001057600080fd5b50610a10806100206000396000f3fe608060405234801561001057600080fd5b50600436106100415760003560e01c80630c39209914610046578063ba864d5314610076578063c0a094fd14610092575b600080fd5b610060600480360381019061005b9190610565565b6100c4565b60405161006d919061069e565b60405180910390f35b610090600480360381019061008b9190610821565b610252565b005b6100ac60048036038101906100a79190610565565b6102fd565b6040516100bb93929190610905565b60405180910390f35b6100cc610454565b81600080549050116100dd57600080fd5b600082815481106100f1576100f061094a565b5b906000526020600020906003020160405180606001604052908160008201805461011a906109a8565b80601f0160208091040260200160405190810160405280929190818152602001828054610146906109a8565b80156101935780601f1061016857610100808354040283529160200191610193565b820191906000526020600020905b81548152906001019060200180831161017657829003601f168201915b505050505081526020016001820160009054906101000a900460ff1660ff1660ff1681526020016002820180546101c9906109a8565b80601f01602080910402602001604051908101604052809291908181526020018280546101f5906109a8565b80156102425780601f1061021757610100808354040283529160200191610242565b820191906000526020600020905b81548152906001019060200180831161022557829003601f168201915b5050505050815250509050919050565b600060405180606001604052808581526020018460ff16815260200183815250908060018154018082558091505060019003906000526020600020906003020160009091909190915060008201518160000190805190602001906102b7929190610478565b5060208201518160010160006101000a81548160ff021916908360ff16021790555060408201518160020190805190602001906102f5929190610478565b505050505050565b6000818154811061030d57600080fd5b9060005260206000209060030201600091509050806000018054610330906109a8565b80601f016020809104026020016040519081016040528092919081815260200182805461035c906109a8565b80156103a95780601f1061037e576101008083540402835291602001916103a9565b820191906000526020600020905b81548152906001019060200180831161038c57829003601f168201915b5050505050908060010160009054906101000a900460ff16908060020180546103d1906109a8565b80601f01602080910402602001604051908101604052809291908181526020018280546103fd906109a8565b801561044a5780601f1061041f5761010080835404028352916020019161044a565b820191906000526020600020905b81548152906001019060200180831161042d57829003601f168201915b5050505050905083565b604051806060016040528060608152602001600060ff168152602001606081525090565b828054610484906109a8565b90600052602060002090601f0160209004810192826104a657600085556104ed565b82601f106104bf57805160ff19168380011785556104ed565b828001600101855582156104ed579182015b828111156104ec5782518255916020019190600101906104d1565b5b5090506104fa91906104fe565b5090565b5b808211156105175760008160009055506001016104ff565b5090565b6000604051905090565b600080fd5b600080fd5b6000819050919050565b6105428161052f565b811461054d57600080fd5b50565b60008135905061055f81610539565b92915050565b60006020828403121561057b5761057a610525565b5b600061058984828501610550565b91505092915050565b600081519050919050565b600082825260208201905092915050565b60005b838110156105cc5780820151818401526020810190506105b1565b838111156105db576000848401525b50505050565b6000601f19601f8301169050919050565b60006105fd82610592565b610607818561059d565b93506106178185602086016105ae565b610620816105e1565b840191505092915050565b600060ff82169050919050565b6106418161062b565b82525050565b6000606083016000830151848203600086015261066482826105f2565b91505060208301516106796020860182610638565b506040830151848203604086015261069182826105f2565b9150508091505092915050565b600060208201905081810360008301526106b88184610647565b905092915050565b600080fd5b600080fd5b7f4e487b7100000000000000000000000000000000000000000000000000000000600052604160045260246000fd5b610702826105e1565b810181811067ffffffffffffffff82111715610721576107206106ca565b5b80604052505050565b600061073461051b565b905061074082826106f9565b919050565b600067ffffffffffffffff8211156107605761075f6106ca565b5b610769826105e1565b9050602081019050919050565b82818337600083830152505050565b600061079861079384610745565b61072a565b9050828152602081018484840111156107b4576107b36106c5565b5b6107bf848285610776565b509392505050565b600082601f8301126107dc576107db6106c0565b5b81356107ec848260208601610785565b91505092915050565b6107fe8161062b565b811461080957600080fd5b50565b60008135905061081b816107f5565b92915050565b60008060006060848603121561083a57610839610525565b5b600084013567ffffffffffffffff8111156108585761085761052a565b5b610864868287016107c7565b93505060206108758682870161080c565b925050604084013567ffffffffffffffff8111156108965761089561052a565b5b6108a2868287016107c7565b9150509250925092565b600082825260208201905092915050565b60006108c882610592565b6108d281856108ac565b93506108e28185602086016105ae565b6108eb816105e1565b840191505092915050565b6108ff8161062b565b82525050565b6000606082019050818103600083015261091f81866108bd565b905061092e60208301856108f6565b818103604083015261094081846108bd565b9050949350505050565b7f4e487b7100000000000000000000000000000000000000000000000000000000600052603260045260246000fd5b7f4e487b7100000000000000000000000000000000000000000000000000000000600052602260045260246000fd5b600060028204905060018216806109c057607f821691505b602082108114156109d4576109d3610979565b5b5091905056fea2646970667358221220588ce819355746a55654d94b889b1197fb0fc01dc5e283b3eb5696919ce9821e64736f6c63430008090033",
  "linkReferences": {},
  "deployedLinkReferences": {}
}